:020000040800F2
:1000000000800120B1020008F9020008F90200088E
:10001000F9020008F9020008F902000800000000D7
:10002000000000000000000000000000F9020008CD
:10003000F902000800000000F9020008E5050008C8
:10004000F9020008F9020008F9020008F9020008A4
:10005000F9020008F9020008F9020008F902000894
:10006000F9020008F9020008F9020008F902000884
:10007000F9020008F9020008F9020008F902000874
:10008000F9020008F9020008F9020008F902000864
:10009000F9020008F9020008F9020008F902000854
:1000A000F9020008F9020008F9020008F902000844
:1000B000F9020008F9020008F9020008F902000834
:1000C000F9020008F9020008F9020008F902000824
:1000D000F9020008F9020008F9020008F902000814
:1000E000F9020008F9020008F9020008F902000804
:1000F000F9020008F9020008F9020008F9020008F4
:10010000F9020008F9020008F9020008F9020008E3
:10011000F9020008F9020008F9020008F9020008D3
:10012000F9020008F9020008F9020008F9020008C3
:10013000F9020008F9020008F9020008F9020008B3
:1001400000000000000000000000000000000000AF
:10015000F9020008F9020008F9020008F902000893
:10016000F9020008F9020008F9020008F902000883
:10017000F9020008F9020008F9020008F902000873
:04018000F902000878
:10019000034613F8012B002AFBD1181A01387047C7
:1001A00001F0FF01102A2BDB10F0070F08D010F828
:1001B000013B013A8B422DD010F0070F42B3F6D12C
:1001C000F0B441EA012141EA014122F007047FF045
:1001D00000070023F0E80256083C85EA010586EA9C
:1001E000010685FA47F5A3FA87F586FA47F6A5FAD8
:1001F00087F68EB9EED1F0BC01F0FF0102F00702E4
:1002000032B110F8013B013A83EA010313B1F8D18E
:100210000020704701387047002D06BF354603386F
:10022000073815F0010F07D1013015F4807F02BFA8
:10023000013015F4C03F0130F0BC0138704700BFF9
:1002400010B5054C237833B9044B13B10448AFF310
:1002500000800123237010BD70000020000000000A
:100260005823000808B5034B1BB103490348AFF3FB
:10027000008008BD00000000740000205823000822
:100280007047000010B5094C88B01C22002101A85D
:10029000009100F04DFB2146684600F051FB2146DD
:1002A000684600F0BDFB08B010BD00BF5824000830
:1002B000002103E00B4B5B58435004310A480B4BC1
:1002C00042189A42F6D30A4A02E0002342F8043B5D
:1002D000084B9A42F9D300F011F800F005FB00F04A
:1002E000C0F8704714260008000000206C000020B1
:1002F0006C00002098000020FEE70000104B1A68F8
:1003000042F001021A601A689207FCD55A686FF32E
:1003100001025A605A6812F00C0FC2F38101F9D140
:1003200059601A6822F0867222F480321A604FF403
:100330001F0219639A60034B4FF000629A60704786
:100340000010024000ED00E010B500F081FA1E4AF6
:1003500018B1022814D01D4B09E0536D9B05FAD546
:10036000136B1B4913F0007F184B18BF0B465268E4
:100370001849C2F303128A5CD340174A136010BDB8
:1003800051685368506810F0C04FC1F30041C3F387
:100390008343C0F3417401D10F2B06D1013303EB2A
:1003A000041321B90D494B43E1E70233F9E75168E2
:1003B000064811F4003F1FBF516DC1F301310231F6
:1003C000B0FBF1F04343D2E70010024000127A0084
:1003D000006CDC02702300080000002000093D00D2
:1003E0000A490346086810B50344EFF308829342B4
:1003F00005D9074B0C221A604FF0FF3010BD054A9B
:10040000054C121B9342F4D20B60F7E70400002066
:100410008C00002000800120000400004FF0FF301D
:1004200070474FF400534B60002070470120704725
:100430000020704700207047FEE70000024B1622A4
:100440001A604FF0FF3070478C0000200120704789
:10045000022810B5144602D903685B689847204605
:1004600010BD08B500F006F8FFF70AFFFFF70AFF16
:10047000FCE7000008B500F05BF8052000F022FA68
:1004800000F0B8F800F08CF8BDE80840014800F032
:1004900003B800BF002401401F4B984213B5044627
:1004A0002ED11E48012100F046F9032000F096F9F4
:1004B000002000F0B3F801A800F0B8F84FF0807306
:1004C00001A92046019300F0B8F801220721204637
:1004D00000F0DBF82046012100F09AF8204600F0F9
:1004E000C2F8204600F0C4F80028FAD1204600F0F7
:1004F000C3F8204600F0C5F80028FAD102B010BDBC
:10050000074B984202D107480121CCE7064B98429D
:10051000F4D106480121C6E7002401400900180073
:10052000002801400A001800003C01400F0018009C
:1005300010B500F0BDF80121084600F011F900F0F7
:10054000E9F80028FBD03B210122022000F054F9F9
:10055000002000F091F90121022000F001F919209A
:1005600000F0C8F801280446F9D1002000F01EF977
:10057000042000F02BF9042000F020F9204600F0C0
:100580006FF9022000F05CF900F062F90228FBD15B
:10059000002000F065F9BDE81040FFF7D5BE00006F
:1005A00008B5FFF7D1FE0D4B4FF47A721B68B3FB11
:1005B000F2F3013BB3F1807F0AD24FF0E022F02149
:1005C0005361074B83F823100023936107231361C2
:1005D000034B002283F8232008BD00BF0000002049
:1005E00000ED00E0024A136801331360704700BF5A
:1005F0006C00002008B501214FF4C01000F09BF8FA
:10060000BDE808400148012100F03EB90203103066
:10061000836861F30003836070470000024B5A68EF
:1006200060F313425A6070470024014000230370B6
:10063000437083700123C370704743680A7862F384
:100640000823436083684A7862F3410383608A78B1
:10065000836862F3CB238360CA78C36A013A62F38A
:100660001753C3627047836843F008038360704781
:100670008068C0F3C0007047836843F00403836060
:1006800070478068C0F380007047836807298CBF7B
:1006900043F000736FF359638360836801F00701CF
:1006A00061F353438360836862F31453836070473C
:1006B0000F4B1A6842F001021A6019460A680C4B87
:1006C0009207FBD55A686FF301025A604A68084BDB
:1006D000C2F38102002AF9D15A60196821F08671AB
:1006E00021F4803119601A634FF41F029A60704739
:1006F00000100240030C03F1804303F50433012290
:100700001B6800F01F0002FA00F003401B1A584259
:100710005841704710B543F201041120FFF7EAFF7A
:10072000012801D0013CF8D11120FFF7E3FF431E5F
:100730005842584110BD030C03F1804303F50433C4
:10074000012900F01F001A6803D101FA00F01043DC
:1007500004E0012101FA00F022EA0000186070476D
:1007600004281FD8DFE800F003080D1319000E4B12
:100770001A6861F3000208E00B4B1A6861F310423B
:1007800003E0094B1A6861F318621A607047064B60
:100790001A6A61F300021A627047034B5A6A61F3E6
:1007A00000025A62704700BF00100240024B5A68B4
:1007B00060F307125A60704700100240024B5A68FB
:1007C00060F30A225A60704700100240024B5A68D8
:1007D00060F3CD225A60704700100240054B5A6802
:1007E00060F38F325A605A68C0F3800060F31C7265
:1007F0005A6070470010024010B5104B5C6818B981
:1008000060F310445C600AE044F480345C600128CA
:1008100058680CBF6FF3514040F40030586058687E
:1008200061F3954058605868C1F3011161F35E703F
:100830005860596862F3DF71596010BD00100240C2
:10084000024B5A6860F301025A6070470010024080
:10085000024B5868C0F38100704700BF001002408F
:10086000044B5A6D01280CBF42F030026FF30512A1
:100870005A65704700100240024B5A6D60F30D320A
:100880005A65704700100240C0F30723C0F30742C7
:10089000C3F120039B1A30B54FF0FF349C40DC407D
:1008A000030E03F1804303F58033D4401D68944068
:1008B00025EA040419B1C0B200FA02F214431C6024
:1008C00030BD0000074AD36823F4E0631B041B0C0F
:1008D00043F0BF6343F4003300F0070043EA002312
:1008E000D360704700ED00E070B50D4D0D4C641BFA
:1008F000A4100026A64209D10B4D0C4C01F02CFD92
:10090000641BA4100026A64205D170BD55F8043B17
:1009100098470136EEE755F8043B98470136F2E771
:100920000C2600080C2600080C26000810260008DB
:1009300002440346934200D1704703F8011BF9E7D4
:100940000EB430B59CB01FAC4FF4017254F8045B88
:10095000ADF8142002900690FFF71AFC0B4B0390A1
:1009600007900B930A48019400230F9314934FF6BA
:10097000FF73ADF816302A46234602A9006800F03E
:1009800071FA1CB0BDE8304003B07047B7090008E9
:100990000800002010B50C46B1F90E1000F062FE00
:1009A0000028ABBF636DA3891B1823F48053ACBF31
:1009B0006365A38110BD002070472DE9F0411F46FB
:1009C0008B89DB0505460C46164605D5B1F90E1098
:1009D0000223002200F0F4F8A389B4F90E1023F4E6
:1009E0008053A38132463B462846BDE8F04100F0E3
:1009F00083B810B50C46B1F90E1000F0E1F8431CB5
:100A0000A38915BF606523F4805343F48053A38109
:100A100018BFA38110BDB1F90E1000F09DB8000001
:100A2000164B2DE9F0411F68BC6D05460E46ECB92A
:100A3000502000F0D7F80246B86520B9104B114895
:100A4000572100F06BF8C0E90044C0E90244C0E956
:100A50000444C0E90A44C0E90C44C0E90E44C0E9BA
:100A60001044C0E91244846104774462BA6D31468F
:100A700028460123BDE8F04100F006B80800002038
:100A800090230008A7230008F0B508B9106888B1C2
:100A90000446204614F8015B0F4617F8016B1EB997
:100AA00065B91560284605E0B542F6D1002BF0D1B6
:100AB00014600370F0BD1C460CE015B914F8013B3E
:100AC0000E4616F8015BAB42F7D1002BF3D00023A2
:100AD00004F8013C1460EDE7024B0A460146186831
:100AE00000F01CBE08000020024B0A4601461868B0
:100AF00000F054B80800002038B5074D04460846F9
:100B0000114600222A601A46FFF7A2FC431C02D1BC
:100B10002B6803B1236038BD8C0000201FB514463C
:100B20001A46094B1B680546D8684CB1074B009123
:100B3000CDE9013406492B4600F01EF800F0F0FF25
:100B4000044B1C46F3E700BF0800002014240008F3
:100B5000212400084F24000838B5064D0023044620
:100B600008462B60FFF75AFC431C02D12B6803B1E7
:100B7000236038BD8C0000200EB403B5014603ABE2
:100B8000054853F8042B0068019300F00BFB02B0FA
:100B90005DF804EB03B070470800002038B5074D3E
:100BA00000230446084611462B6001F0CDFB431C90
:100BB00002D12B6803B1236038BD00BF8C00002038
:100BC00038B5074D04460846114600222A601A46E9
:100BD000FFF72EFC431C02D12B6803B1236038BD04
:100BE0008C000020024B0146186800F06DB800BF71
:100BF0000800002038B50546002941D051F8043CD2
:100C00000C1F002BB8BFE41801F084F91D4A1368CB
:100C100033B9636014602846BDE8384001F07BB901
:100C2000A34208D9206821188B4201BF19685B686C
:100C300009182160EDE71A465B680BB1A342FAD9A7
:100C400011685018A0420BD120680144501883420B
:100C50001160E0D118685B68536008441060DAE7FF
:100C600002D90C232B60D6E7206821188B4204BFE1
:100C700019685B68636004BF091821605460CAE7A3
:100C800038BD00BF9000002070B50E4E0C46316894
:100C9000054611B900F0F8FC30602146284600F006
:100CA000F3FC431C0AD0C41C24F00304A04207D068
:100CB000211A284600F0E8FC013001D14FF0FF3442
:100CC000204670BD940000202DE9F041CD1C25F098
:100CD000030508350C2D38BF0C25002D074601DB18
:100CE000A94205D90C233B6000263046BDE8F081BF
:100CF0002E4E01F00FF933681C4634BB29463846A6
:100D0000FFF7C2FF431C04464DD134682646002E2F
:100D100040D123683146384604EB030800F0B4FCA8
:100D200080453AD123680335ED1A25F003050835CF
:100D30000C2D38BF0C2529463846FFF7A5FF01309A
:100D40002BD023682B4423600EE02268521B1ED454
:100D50000B2A16D96119A342256018BF5960636830
:100D600008BF316062514B60384604F10B0601F058
:100D7000D2F826F00706231DF21AB6D09B1BA3500B
:100D8000B3E76268A3420CBF32605A60ECE72346C7
:100D90006468B2E734467668B9E70C233B603846AE
:100DA00001F0B9F8A1E72560DEE700BF9000002060
:100DB00038B54B1C144603D14FF0FF35284638BDDB
:100DC000938923F020039381636B5268CDB28BB17A
:100DD000A36B934208DD23685A1E226003F8015C6E
:100DE000636801336360E9E7214600F09FFD002856
:100DF000F1D0E1E72169236851B1994208D213F893
:100E0000011CA94204D1013B013223606260D5E795
:100E1000C4E90F3204F1440363630323A36323464D
:100E200003F8465F23600123DCE710B50C46496BED
:100E300069B104F14403994201D0FFF7DBFE236C52
:100E400063600020606313B1E36B236010BD23690E
:100E5000236000236360A38943F02003A3814FF044
:100E6000FF30F3E72DE9F0470C46ADF5227D002178
:100E7000CDE94411A649A0910DF10408A549A64F5A
:100E8000DFF89892CDF818810646A1910093137867
:100E9000002B00F05A81F95C11F0080102F1010504
:100EA00019D06368002B0FDD23681A78BA5C12072B
:100EB00001D42A46EBE7459A013245926268013334
:100EC000013A62602360ECE7A19B214630469847D7
:100ED0000028E9D0EDE7252B12D09A466368002B55
:100EE00040F3918022681378534540F02E81636867
:100EF000013B6360459B0132013322604593D8E793
:100F00004191439153782A2B02BF1023951C4193A2
:100F10000A22AA461AF8011BA1F13003092B1CD999
:100F20007E480322FFF73CF938B1419AA0EB090053
:100F30000123834013434193554615F8013B782B19
:100F400006D8572B10D8252BC7D057D8002B65D0E3
:100F5000032347930A23429376E0439B02FB03114A
:100F6000303943915546D4E7A3F15802202AEFD8EF
:100F700001A151F822F000BF2B100008510F00080A
:100F8000510F000889100008510F0008510F000888
:100F9000510F0008510F0008510F0008510F0008B1
:100FA000510F00089F10000885100008031000086A
:100FB0000310000803100008510F0008411000083A
:100FC000510F0008510F0008510F0008510F000881
:100FD000AF1000087D10000823100008510F000812
:100FE000510F0008AB100008510F000885100008D1
:100FF000510F0008510F00082B100008453B022B31
:10100000A6D805231FE0A19B21463046984700281B
:101010003FF468AF4498002840F08D804FF0FF30D7
:101020008FE0419A42F020024192419A42F40072CC
:10103000419210226F2B429234BF0323042302E01B
:1010400000234293032347936368002B3DDD419BBC
:10105000590604D423681A78BA5C12073CD4479B1B
:10106000022B4BDC6B46224641A9304600F0ACF91E
:1010700001286AD002287FF41CAFCBE708234293F3
:101080000423E0E70A22D5E72946404600F00CFB9E
:10109000419B43F04003419305460123D3E7419B25
:1010A00043F0400341930023CDE70223CBE741986F
:1010B000C3063FF5FEAE009B459A191D00911B68C3
:1010C000C0074CBF1A801A60F3E6A19B2146304648
:1010D00098470028BBD09DE7459A01324592626847
:1010E000013A002A626002DD01332360B2E7A19B6E
:1010F0002146304698470028ACD08BE7042B0FDC04
:101100006B46224641A9304600F0B8F9B0E700BF6F
:10111000B10D00082B0E00087D24000850240008A3
:101120000B4B002B3FF4C5AE6B46224641A930461F
:10113000AFF300809CE7A38913F0400F18BF4FF076
:10114000FF300DF5227DBDE8F0874498F9E700BF38
:10115000000000009368013B002B10B4936007DA95
:101160009469A34201DB0A2902D110BC00F018BC2B
:101170001368581C10601970084610BC7047F8B509
:1011800006460F461446D518AC4201D1002007E0B0
:1011900014F8011B3A463046FFF7DCFF431CF3D13D
:1011A000F8BD00002DE9F04F0D469DB0144698465D
:1011B000064618B183690BB900F0ACFD7A4B9D422D
:1011C0005FD17568AB891B0765D52B69002B62D091
:1011D0000023099320238DF82930CDF80C8030238B
:1011E000DFF8C8818DF82A304FF0010923469A466E
:1011F00013F8012B0AB1252AF9D1BAEB040B0BD055
:101200005B46224629463046FFF7B9FF013000F021
:10121000BD80099A5A4409929AF80030002B00F0D8
:10122000B58000234FF0FF32CDE905230AF1010A12
:10123000049307938DF853301A9354465B4814F87F
:10124000011B0522FEF7ACFF049B78BBD80644BF08
:1012500020228DF85320190744BF2B228DF85320EC
:101260009AF800202A2A29D0079A544600204FF0E5
:101270000A0C214611F8013B303B092B61D918BB00
:1012800029E04B4B9D4201D1B5689BE7494B9D42FC
:1012900008BFF56896E72946304600F0D3FB0028E2
:1012A00096D04FF0FF301DB0BDE8F08FA0EB0800E6
:1012B00009FA00F018430490A246BEE7039A111DF4
:1012C00012680391002A01DB079204E0524243F0C6
:1012D00002030792049323782E2B0CD163782A2BD8
:1012E00034D1039B1A1D1B680392002BB8BF4FF02B
:1012F000FF3302340593DFF8C0A021780322504663
:10130000FEF74EFF38B1049BA0EB0A00402282405A
:1013100013430134049314F8011B28488DF8281056
:101320000622FEF73DFF002835D0254B1BBB039B53
:10133000073323F0070308330393099B3B440993C6
:1013400054E70CFB02320C46012092E700230134E3
:10135000059319464FF00A0C204610F8012B303A3D
:10136000092A03D9002BC6D00591C4E70CFB012143
:1013700004460123F0E703AB00932A46114B04A96E
:101380003046AFF30080421C0746D6D1AB895B06DE
:1013900087D4099887E703AB00932A46094B04A931
:1013A000304600F055FEEEE7A02500085424000862
:1013B000C025000880250008502400085A24000891
:1013C000000000007F1100082DE9F84315468A68E7
:1013D00080460C4632B98A69002A0CBF01224FF0C0
:1013E000FF328A602268DFF89090D1065FBF1A68EA
:1013F000111D196016680027A06988B1012807D15E
:101400002B681A7863699B5C53B9002F31D022E0B6
:10141000022820D12B681B7819F803301B071AD437
:101420002368DA065EBF2B681B7806F8013B2A6842
:101430006B6801322A60A268013B013A6B60013798
:10144000A26042B1002BD7DCD4F880312946404657
:1014500098470028D0D0236813F0100305D1E26824
:101460000132E260A26902B1337023693B44236117
:101470000020BDE8F88300BF7D2400082DE9F04F6F
:101480009846744B0C468246164693E8070087B090
:1014900003AB83E80700704BA169704A032918BFAA
:1014A0001A46A36801925A1EB2F5AE7F88BF6FF448
:1014B000AE75274682BF03EB050940F25D13A360BA
:1014C00057F81C3B43F4506398BF4FF0000923606A
:1014D0003D464FF0000B316803AB097853F82B0001
:1014E0000222FEF75DFE28B3BBF1010F59D16268FD
:1014F0002AB92268082342F40072636022602268DD
:1015000022F4A0622260A268511EA16092B13268EA
:10151000511C3160127805F8012B7268013A002ADB
:10152000726007DCD4F8802131465046904700288D
:1015300040F085800BF1010BBBF1030FCBD1636849
:101540000BB90A236360636845496069C91A00F0F2
:10155000ABF84FF0000BA3682268002B3DD0316838
:10156000606991F800C010F80C00002835D0BCF17B
:10157000300F24D1100522D50BF1010BB9F1000F6A
:1015800003D0013309F1FF39A3607368013B002BDD
:1015900073601BDD336801333360A368013BA360D4
:1015A000D9E7BBF1020FAED1226802F4C061B1F5F8
:1015B000007FBFD11023636042F48072A2E722F45F
:1015C000106222600B7805F8013BDEE7D4F8803129
:1015D0003146504698470028DFD02368D9050DD5FD
:1015E000BD4209D915F8011CD4F87C313246504669
:1015F000984705F1FF394D46BD4228D0226812F0C8
:10160000100213D12A706368019E39465046B047D4
:10161000D8F8003021681A1DC8F8002011F0200FFA
:101620001B680FD01860E3680133E3602369ED1B8A
:101630005D442B442361002007B0BDE8F08F4FF0DC
:10164000000BCAE7CA074CBF18801860EBE70120FF
:10165000F2E700BF8023000829190008411800089C
:101660007124000838B5074D04460846114600228B
:101670002A601A46FEF7DEFE431C02D12B6803B136
:10168000236038BD8C00002038B5064D0023044689
:1016900008462B60FEF7A4FE431C02D12B6803B161
:1016A000236038BD8C00002070B50B7804465E2B9B
:1016B0000BBF4B784A1C8A1C002108BF012101384E
:1016C00004F1FF0500F8011FA842FBD10BB9501E21
:1016D00070BD81F00101E1541046024612F8015B31
:1016E0002D2D05D05D2D16D0002DF1D02B46F2E723
:1016F00046785D2EFAD0B342F8DC02301A46013249
:101700009642A154FBDCF21A013A5D1CB342A8BF19
:101710000022AB18E1E71046DAE7000038B5074DC4
:1017200000230446084611462B60FEF787FE431C43
:1017300002D12B6803B1236038BD00BF8C000020AC
:10174000FEF784BE012B2DE9F0478646904601D076
:10175000242B06D900F0ECF9162303600020BDE825
:10176000F08736480D462A4615F8014B065D16F0FF
:101770000806F8D12D2C2ED12C780126951C002B93
:1017800057D0102B09D1302C07D12A7802F0DF0274
:10179000582A49D16C781023023506F1004C0CF11F
:1017A000FF3C0022BCFBF3F9104603FB19CAA4F16D
:1017B0003007092F14D83C46A34220DD571C07D020
:1017C000814519D301D1A24516DB00FB034001225C
:1017D00015F8014BEBE72B2C04BF2C78951CCEE7BA
:1017E000A4F14107192F01D8373CE5E7A4F16107BF
:1017F000192F04D8573CDFE74FF0FF32E8E7531CBE
:1018000008D12223CEF800306046B8F1000FA6D0F0
:10181000691E06E006B14042B8F1000F9FD0002AD1
:10182000F6D1C8F800109AE73024002BB5D1082370
:10183000B3E7302CA9D00A23AFE700BF7D2400080E
:10184000FFF780BF2DE9F043364F86460D46284608
:1018500015F8014B3E5D16F00806F8D12D2C30D15D
:101860002C780126851C002B57D0102B09D1302C49
:1018700007D1287800F0DF00582849D16C78102370
:1018800002354FF0FF380027B8FBF3F803FB08F9E7
:101890006FEA09093846A4F1300CBCF1090F15D8DC
:1018A0006446A34223DDB7F1FF3F07D080451BD339
:1018B00001D1A14518DB00FB0340012715F8014BBE
:1018C000E9E72B2C04BF2C78851CCCE7A4F1410C54
:1018D000BCF1190F01D8373CE3E7A4F1610CBCF16E
:1018E000190F04D8573CDCE74FF0FF37E6E77B1CC5
:1018F00006D12223CEF80030384632B9BDE8F08355
:1019000006B14042002AF9D007B1691E1160F5E71F
:101910003024002BB5D10823B3E7302CA9D00A23FB
:10192000AFE700BF7D240008FFF78CBF2DE9F04131
:101930000C46496B04F1440399421DD14FF4806178
:10194000FFF7C2F918B94FF0FF30BDE8F0814FF44E
:101950008063A36394F84630606380F8FF3394F8A3
:10196000453080F8FE3394F8443080F8FD3300F2BF
:10197000FD3020600020E8E7A66B77003A4600F0D3
:10198000CBFA05460028DED000EB060801463246B9
:10199000404600F0B1FAC4E90D57C4F80080E9E709
:1019A000F8B50E461446054618B183690BB900F028
:1019B000B1F9214B9C422BD16C68A369A360A38928
:1019C0001A072FD523696BB323692068C01A63698E
:1019D000F6B28342374604DC2146284600F030F94F
:1019E00030BBA368013BA36023685A1C22601E70B1
:1019F00063690130834204D0A389DB0706D50A2E30
:101A000004D12146284600F01BF988B93846F8BDB4
:101A10000A4B9C4201D1AC68CFE7094B9C4208BFFE
:101A2000EC68CAE72146284600F00CF80028CBD025
:101A30004FF0FF37EAE700BFA0250008C0250008E7
:101A400080250008324B70B51D6806460C4625B14E
:101A5000AB6913B9284600F05DF92E4B9C420FD1BB
:101A60006C68A389B4F90C2019072CD4DD0611D4B5
:101A70000923336042F04003A3814FF0FF303EE082
:101A8000254B9C4201D1AC68EBE7244B9C4208BF3C
:101A9000EC68E6E7580712D5616B41B104F14403E5
:101AA000994202D03046FFF7A5F800236363A3896B
:101AB00023F02403A3810023636023692360A389A7
:101AC00043F00803A38123694BB9A38903F420736E
:101AD000B3F5007F03D02146304600F0CDF9A08950
:101AE000B4F90C2010F001030AD00023A36063694D
:101AF0005B42A361236943B910F08000BAD170BD85
:101B0000810758BF6369A360F4E70020F7E700BFCF
:101B100008000020A0250008C02500088025000836
:101B200008B5062000F0DEFB0120FEF785FC000072
:101B3000014B1868704700BF080000208A89F8B57B
:101B4000054610070C4657D44B68002B04DC0B6C81
:101B5000002B01DC0020F8BDE66A002EFAD000233D
:101B600012F480522F68216A2B6032D0606DA389F5
:101B70005A0705D56368C01A636B0BB1236CC01A92
:101B800000230246E66A216A2846B047431CA3891F
:101B900006D129681D292BD8284A0A41D60727D4FF
:101BA00000226260D9042269226004D5421C01D15E
:101BB0002B6803B96065616B2F600029CAD004F1FE
:101BC0004403994202D02846FFF714F800206063CE
:101BD000C1E701232846B047411CC8D12B68002B20
:101BE000C5D01D2B01D0162B01D12F60B2E7A389E0
:101BF00043F04003A381AEE70F69002FAAD09307FB
:101C00000E6808BF4B690F6018BF0023F61B8B607E
:101C1000002E9FDD216AD4F828C033463A46284674
:101C2000E047002806DCA38943F04003A3814FF07E
:101C3000FF3090E70744361AEAE700BFFEFFBFDF38
:101C400038B50B6905460C46DBB118B183690BB991
:101C500000F060F80C4B9C4209D16C68B4F90C3070
:101C60007BB121462846BDE83840FFF767BF074BE8
:101C70009C4201D1AC68F1E7054B9C4208BFEC687F
:101C8000ECE7002038BD00BFA0250008C0250008F3
:101C900080250008002310B50446C0E90033C0E9E0
:101CA0000433836081814366C281836119460822BF
:101CB0005C30FEF73DFE054B6362054BA362054BAE
:101CC000E362054B2462236310BD00BF9509000841
:101CD000BB090008F3090008170A0008014900F0D1
:101CE00085B800BF411C000870B568234D1E5D43D8
:101CF0000E4605F17401FEF7E7FF044640B10021EE
:101D0000C0E900160C30A06005F16802FEF710FE75
:101D1000204670BD836910B5044633BBC0E9123359
:101D20000365124B124A1B688262984204BF01236A
:101D3000836100F01FF86060204600F01BF8A0608F
:101D4000204600F017F80022E06004216068FFF7E9
:101D5000A1FFA06801220921FFF79CFFE068022291
:101D60001221FFF797FF0123A36110BD8C23000808
:101D7000DD1C0008F8B51B4B1E68B369074613B994
:101D80003046FFF7C7FF4836D6E90134013B03D59B
:101D90003368DBB13668F7E7B4F90C50A5B9124BDC
:101DA0006566C4E90055C4E90335C4E90555A56075
:101DB0000822294604F15C00FEF7BAFDC4E90D557E
:101DC000C4E912552046F8BD6834DFE704213846DF
:101DD000FFF78AFF044630600028DBD10C233B600C
:101DE000F0E700BF8C2300080100FFFF2DE9F84356
:101DF0000646884600F148040027D4E90195B9F168
:101E0000010905D52468002CF7D13846BDE8F883D0
:101E1000AB89012B07D9B5F90E30013303D0294620
:101E20003046C04707436835E9E770B50C46B1F95D
:101E30000E10002996B015461E460DDAA38913F040
:101E4000800F4FF000010CBF4FF48063402300204F
:101E500031602B6016B070BD6A4600F04BFA002866
:101E6000ECDB019901F47041A1F50053594259414D
:101E70004FF48063EBE700008B8973B59D0706463E
:101E80000C4607D504F147032360236101236361F6
:101E900002B070BD01AB6A46FFF7C7FF0099054667
:101EA0003046FEF711FF48B9B4F90C309A05EFD46B
:101EB00023F0030343F00203A381E3E70D4BB36276
:101EC000A389206043F08003A381009B6361019B91
:101ED00020615BB1B4F90E10304600F01DFA28B154
:101EE000A38923F0030343F00103A381A3891D43C6
:101EF000A581CDE7DD1C00080A44914200F1FF33C3
:101F000000D1704710B511F8014B03F8014F914211
:101F1000F9D110BD704770472DE9F0418046144655
:101F20000E4621B9BDE8F0411146FEF7CDBE2AB9F3
:101F3000FEF760FE25462846BDE8F08100F0FCF97A
:101F40008442074602D8B4EB500F12D821464046CF
:101F5000FEF7BAFE05460028EDD0BC4222463146C7
:101F600028BF3A46FFF7C8FF31464046FEF742FE1B
:101F7000E1E73546DFE72DE9F047164699468A68DE
:101F80000B69DDF820809342B8BF1346336091F8A7
:101F9000432007460C460AB1013333602368990693
:101FA00042BF336802333360256815F0060506D159
:101FB00004F1190AE36832689B1AAB4226DC94F8F4
:101FC0004320131E226818BF012392062BD404F16C
:101FD000430249463846C04701301ED02368226973
:101FE00003F00603042B02BFE5683368ED1AA3680B
:101FF0000CBF25EAE57500259342C4BF9B1AED1876
:1020000000261A34B5421AD1002008E001235246B6
:1020100049463846C047013003D14FF0FF30BDE894
:10202000F0870135C6E7E1185A1C302081F84300DB
:10203000224494F8451082F843100233C7E7012385
:10204000224649463846C0470130E6D00136D9E736
:102050002DE9FF470F7E0C9D782F914680460C4658
:102060009A4601F1430207D8622F0AD8002F00F0E8
:10207000D480582F00F0C08004F1420584F84270EB
:102080003AE0A7F16303152BF6D801A151F823F02C
:10209000E9200008FD2000087920000879200008C8
:1020A0007920000879200008FD2000087920000828
:1020B0007920000879200008792000080122000812
:1020C00029210008BB210008792000087920000898
:1020D000232200087920000829210008792000081F
:1020E00079200008C32100082B681A1D1B682A608C
:1020F00004F1420584F8423001239FE020682B68F8
:10210000070603F10401296001D51E6803E04606B5
:10211000FBD5B3F90060002E03DA2D23764284F854
:1021200043305A480A2312E02B682068191D2960A1
:10213000050601D51E6802E04106FBD51E885348FE
:102140006F2F0CBF08230A23002184F84310656811
:10215000A560002DA2BF216821F0040121600EB905
:10216000002D4BD01546B6FBF3F103FB1167C75D9D
:1021700005F8017D3746BB420E46F4D9082B0BD13A
:102180002368DE0708D5236961689942DEBF3023E2
:1021900005F8013C05F1FF35521B2261CDF800A086
:1021A0004B4603AA21464046FFF7E5FE01304AD1DF
:1021B0004FF0FF3004B0BDE8F087236843F0200300
:1021C00023603348782784F84570236829681F0600
:1021D00051F8046B02D45F0648BFB6B2DF0748BFB0
:1021E00043F02003296048BF23601EB9236823F011
:1021F000200323601023A7E72448E4E71546BDE742
:102200002B6826686169181D286035061B6801D592
:10221000196002E07006FBD5198000232361154682
:10222000BCE72B681A1D2A601D68626800212846D9
:10223000FDF7B6FF08B1401B6060636823610023AF
:1022400084F84330AAE723692A4649464046D047E6
:102250000130ADD023689B0713D4E068039B9842FC
:10226000B8BF1846A6E70123324649464046D04744
:1022700001309DD00135E36803995B1AAB42F2DC73
:10228000EBE7002504F11906F5E700BFE02500089B
:10229000F12500081F2938B504460D4604D9162338
:1022A00003604FF0FF3038BD426C12B152F821305C
:1022B0004BB92046FFF744FA2A4601462046BDE8BE
:1022C0003840FFF72BBA012B0AD0591C03D1162333
:1022D00003600120E7E7002442F82540284698479C
:1022E0000020E0E7024B01461868FFF7D3BF00BFAC
:1022F0000800002038B5074D002304460846114663
:102300002B60FEF78EF8431C02D12B6803B12360CB
:1023100038BD00BF8C00002038B5064D00230446B0
:1023200008462B60FEF782F8431C02D12B6803B1EC
:10233000236038BD8C00002051F8043C181F002B8E
:10234000BCBF0B58C0187047024B58221A604FF0A0
:10235000FF3070478C000020F8B500BFF8BC08BC07
:102360009E467047F8B500BFF8BC08BC9E46704753
:102370000000000000000000010203040607080935
:102380007324000876240008792400080C0000203B
:102390005245454E54206D616C6C6F6320737563BC
:1023A000636565646564002F486F73742F686F6D93
:1023B000652F696C672F576F726B2F61726D2D6E71
:1023C0006F6E652D656162692D6763632D31312EF6
:1023D000322E312D312E322F6C696E75782D783674
:1023E000342F736F75726365732F6E65776C6962D6
:1023F0002D63796777696E2F6E65776C69622F6CD4
:102400006962632F737472696E672F737472746F6D
:102410006B2E63002C2066756E6374696F6E3A20B4
:1024200000617373657274696F6E202225732220B8
:102430006661696C65643A2066696C652022257363
:10244000222C206C696E65202564257325730A0093
:10245000686C4C00232D302B20006566674546478D
:1024600000412D46612D66383930313233343536EE
:10247000375D002B2D0030300078580000202020E0
:102480002020202020202828282828202020202024
:1024900020202020202020202020202020881010F4
:1024A0001010101010101010101010101004040450
:1024B000040404040404041010101010101041410E
:1024C00041414141010101010101010101010101FC
:1024D0000101010101010101101010101010424210
:1024E00042424242020202020202020202020202CC
:1024F000020202020202020210101010200000006C
:1025000000000000000000000000000000000000CB
:1025100000000000000000000000000000000000BB
:1025200000000000000000000000000000000000AB
:10253000000000000000000000000000000000009B
:10254000000000000000000000000000000000008B
:10255000000000000000000000000000000000007B
:10256000000000000000000000000000000000006B
:10257000000000000000000000000000000000005B
:10258000000000000000000000000000000000004B
:10259000000000000000000000000000000000003B
:1025A000000000000000000000000000000000002B
:1025B000000000000000000000000000000000001B
:1025C000000000000000000000000000000000000B
:1025D00000000000000000000000000000000000FB
:1025E0003031323334353637383941424344454649
:1025F00000303132333435363738396162636465DF
:042600006600000070
:0826040044FDFF7F010000000E
:04260C00650200085B
:04261000410200087B
:1026140000127A00980000200C0000200000000046
:10262400A0250008C025000880250008000000003F
:102634000000000000000000000000000000000096
:102644000000000000000000000000000000000086
:102654000000000000000000000000000000000076
:102664000000000000000000000000000000000066
:0C2674000000000000000000000000005A
:04000005080002B13C
:00000001FF
